:100000000C945E000C947B000C947B000C947B00A1
:100010000C947B000C947B000C947B000C947B0074
:100020000C947B000C947B000C947B000C947B0064
:100030000C947B000C947B000C947B000C947B0054
:100040000C9434010C947B000C947B000C947B008A
:100050000C947B000C947B000C947B000C947B0034
:100060000C947B000C947B0000000008000201004F
:100070000003040700000000000000000102040863
:100080001020408001020408102001020408102002
:10009000040404040404040402020202020203032E
:1000A0000303030300000000250028002B000000CC
:1000B0000000240027002A0097009E0011241FBE84
:1000C000CFEFD8E0DEBFCDBF21E0A0E0B1E001C0BE
:1000D0001D92A239B207E1F710E0CDE5D0E004C0EF
:1000E0002197FE010E949C02CC35D107C9F70E94DE
:1000F00025010C94A2020C94000061E08DE00E94A6
:100100002F0261E08CE00E942F0261E08BE00E94F0
:100110002F0260E08CE00C946B0264EF71E080E0F1
:1001200090E00E94A30180E091E00C9414012CE087
:100130004BE06DE080E091E00C94A20080E091E063
:100140000C94A800FC0160834183228313820895EC
:100150000895EF92FF920F931F93CF93DF938C013B
:10016000C0E0D0E0E62EF12CB7010C2E02C0759550
:1001700067950A94E2F761707727F80180810E9401
:100180006B0261E0F80181810E946B0260E0F8017E
:1001900081810E946B022196C830D10529F7DF9139
:1001A000CF911F910F91FF90EF900895EF92FF92E2
:1001B0000F931F93CF93DF93683070F5EC01062FF8
:1001C00010E0C801019761E070E001C0660F8A95F8
:1001D000EAF7CE010E94A900E12CF12CEC81FD810F
:1001E000EE0DFF1D0190F081E02DE00FF11F608109
:1001F000CE010E94A90082E0E80EF11C80E1E81621
:10020000F10461F761E08A810E946B0260E08A81FB
:100210000E946B0280E001C081E0DF91CF911F91CD
:100220000F91FF90EF900895CF93DF93EC016B81D6
:10023000683010F01B8205C00E94D6008B818F5F52
:100240008B83DF91CF91089508950E94CB010E9486
:1002500024010E947D00C0E0D0E00E948D00209724
:10026000E1F30E940000F9CF1F920F920FB60F9298
:1002700011242F933F938F939F93AF93BF938091BC
:100280008A0190918B01A0918C01B0918D013091E8
:10029000890123E0230F2D3720F40196A11DB11D04
:1002A00005C026E8230F0296A11DB11D20938901E8
:1002B00080938A0190938B01A0938C01B0938D0160
:1002C00080918E0190918F01A0919001B091910148
:1002D0000196A11DB11D80938E0190938F01A09373
:1002E0009001B0939101BF91AF919F918F913F91F8
:1002F0002F910F900FBE0F901F9018953FB7F89455
:1003000080918E0190918F01A0919001B091910107
:1003100026B5A89B05C02F3F19F00196A11DB11D60
:100320003FBFBA2FA92F982F8827820F911DA11D9B
:10033000B11DBC01CD0142E0660F771F881F991FD8
:100340004A95D1F70895CF92DF92EF92FF92CF9323
:10035000DF936B017C010E947E01EB01C114D1048B
:10036000E104F10489F00E949B020E947E016C1B53
:100370007D0B683E734090F381E0C81AD108E10814
:10038000F108C851DC4FEACFDF91CF91FF90EF9099
:10039000DF90CF900895789484B5826084BD84B551
:1003A000816084BD85B5826085BD85B5816085BD70
:1003B000EEE6F0E0808181608083E1E8F0E0108289
:1003C000808182608083808181608083E0E8F0E0CA
:1003D000808181608083E1EBF0E0808184608083B4
:1003E000E0EBF0E0808181608083EAE7F0E08081EB
:1003F000846080838081826080838081816080834B
:100400008081806880831092C1000895833081F0DC
:1004100028F4813099F08230A1F008958730A9F056
:100420008830B9F08430D1F4809180008F7D03C092
:10043000809180008F7780938000089584B58F77B6
:1004400002C084B58F7D84BD08958091B0008F7700
:1004500003C08091B0008F7D8093B0000895CF934A
:10046000DF9390E0FC01E458FF4F2491FC01E0573A
:10047000FF4F8491882361F190E0880F991FFC0160
:10048000E255FF4FC591D491FC01EC55FF4FA5916A
:10049000B491611109C09FB7F89488812095822397
:1004A0008883EC912E230BC0623061F49FB7F894DF
:1004B0003881822F809583238883EC912E2B2C9377
:1004C0009FBF06C08FB7F894E8812E2B28838FBF7B
:1004D000DF91CF9108951F93CF93DF93282F30E0C2
:1004E000F901E859FF4F8491F901E458FF4FD49185
:1004F000F901E057FF4FC491CC23C9F0162F8111A9
:100500000E940602EC2FF0E0EE0FFF1FEC55FF4FAC
:10051000A591B4918FB7F894111105C09C91ED2F5E
:10052000E095E92302C0EC91ED2BEC938FBFDF91B6
:10053000CF911F9108950895EE0FFF1F0590F4913C
:10054000E02D099410E0CDE5D0E004C0FE010E944A
:0E0550009C022196CE35D107C9F7F894FFCF53
:00000001FF
