:100000000C945E000C947B000C947B000C947B00A1
:100010000C947B000C947B000C947B000C947B0074
:100020000C947B000C947B000C947B000C947B0064
:100030000C947B000C947B000C947B000C947B0054
:100040000C94BB010C947B000C947B000C947B0003
:100050000C947B000C947B000C947B000C947B0034
:100060000C947B000C947B0000000008000201004F
:100070000003040700000000000000000102040863
:100080001020408001020408102001020408102002
:10009000040404040404040402020202020203032E
:1000A0000303030300000000250028002B000000CC
:1000B0000000240027002A00B800BC0011241FBE45
:1000C000CFEFD8E0DEBFCDBF21E0A0E0B1E001C0BE
:1000D0001D92A139B207E1F710E0CDE5D0E004C0F0
:1000E0002197FE010E942303CC35D107C9F70E9456
:1000F000AC010C9429030C9400001F93CF93DF9361
:1001000080E091E00E94EA0061E087E00E94B60290
:10011000D0E0C0E010E0212F4C2F6D2F80E091E067
:100120000E94FA001F5F1830B1F7CF5FC83091F717
:10013000DF5FD83071F780E091E00E941E0180E01F
:1001400091E0DF91CF911F910C942A0164EF71E04F
:1001500080E090E00E942A0261E087E00E94F202C3
:1001600080E091E00E94800160E087E00C94F20260
:1001700080E091E00C94C00080E091E00C94E000FD
:10018000CF93DF93FC0110821182DC01AA57BF4F8D
:100190001C9211961C92EC012696D383C283A15423
:1001A000B109B583A48380E4FE01982F11929A953A
:1001B000E9F7FD0111928A95E9F7DF91CF91089552
:1001C00008952D9888E42B9A2B988150E1F72C9A6A
:1001D0002C980895CF93DF93EC0181E08983CE01C1
:1001E0000E94E100259A239A249A82E08983DF9174
:1001F000CF910895683000F54830F0F42830E0F4ED
:10020000DC011496ED91FC911597B8E04B9FE00D41
:10021000F11D1124E20FF11D81E090E0A0E0B0E0BB
:1002200004C0880F991FAA1FBB1F6A95D2F72081AF
:10023000822B808380E0089581E00895FC01218174
:10024000233031F4EA57FF4F81E0808380E0089546
:1002500081E00895FC012181233031F4E957FF4FFB
:1002600081E0808380E0089581E0089587E090E058
:1002700070E09B01082E02C0359527950A94E2F79D
:1002800020FF02C02D9A01C02D982B9A2B98019720
:1002900080F70895EF92FF920F931F93CF93DF9310
:1002A000683030F5EC01062F10E081E090E09C0111
:1002B00002C0220F331F6A95E2F7B901CE010E94F6
:1002C0003601E12CF12CEA81FB81EE0DFF1DE00FE0
:1002D000F11F6081CE010E94360138E0E30EF11C6F
:1002E00080E4E816F10479F72C9A2C9880E001C09C
:1002F00081E0DF91CF911F910F91FF90EF900895D2
:10030000CF93DF93FC018181833011F580818830A8
:10031000B8F01082EF01CA57DF4F8881882381F03F
:10032000DF01A957BF4F8C91882351F082819381BF
:1003300024813581338322839583848318821C92A0
:10034000EF016081CF010E944A0188818F5F88831D
:10035000DF91CF91089508950E9452020E94AB014F
:100360000E947D00C0E0D0E00E94A6002097E1F34B
:100370000E940000F9CF1F920F920FB60F92112426
:100380002F933F938F939F93AF93BF938091890156
:1003900090918A01A0918B01B0918C0130918801DC
:1003A00023E0230F2D3720F40196A11DB11D05C0B8
:1003B00026E8230F0296A11DB11D2093880180938A
:1003C000890190938A01A0938B01B0938C01809155
:1003D0008D0190918E01A0918F01B09190010196B5
:1003E000A11DB11D80938D0190938E01A0938F016B
:1003F000B0939001BF91AF919F918F913F912F91B9
:100400000F900FBE0F901F9018953FB7F8948091F2
:100410008D0190918E01A0918F01B091900126B530
:10042000A89B05C02F3F19F00196A11DB11D3FBF2C
:10043000BA2FA92F982F8827820F911DA11DB11DBA
:10044000BC01CD0142E0660F771F881F991F4A95B6
:10045000D1F70895CF92DF92EF92FF92CF93DF937F
:100460006B017C010E940502EB01C114D104E1047F
:10047000F10489F00E9422030E9405026C1B7D0B8F
:10048000683E734090F381E0C81AD108E108F10892
:10049000C851DC4FEACFDF91CF91FF90EF90DF9012
:1004A000CF900895789484B5826084BD84B58160CE
:1004B00084BD85B5826085BD85B5816085BDEEE66C
:1004C000F0E0808181608083E1E8F0E0108280814B
:1004D00082608083808181608083E0E8F0E08081B9
:1004E00081608083E1EBF0E0808184608083E0EBD9
:1004F000F0E0808181608083EAE7F0E080818460C1
:10050000808380818260808380818160808380811C
:10051000806880831092C1000895833081F028F4B0
:10052000813099F08230A1F008958730A9F08830A9
:10053000B9F08430D1F4809180008F7D03C0809128
:1005400080008F7780938000089584B58F7702C0F4
:1005500084B58F7D84BD08958091B0008F7703C0EE
:100560008091B0008F7D8093B0000895CF93DF938A
:1005700090E0FC01E458FF4F2491FC01E057FF4F4D
:100580008491882361F190E0880F991FFC01E25566
:10059000FF4FC591D491FC01EC55FF4FA591B4914B
:1005A000611109C09FB7F8948881209582238883C0
:1005B000EC912E230BC0623061F49FB7F894388120
:1005C000822F809583238883EC912E2B2C939FBFC1
:1005D00006C08FB7F894E8812E2B28838FBFDF9158
:1005E000CF9108951F93CF93DF93282F30E0F90127
:1005F000E859FF4F8491F901E458FF4FD491F90174
:10060000E057FF4FC491CC23C9F0162F81110E94EF
:100610008D02EC2FF0E0EE0FFF1FEC55FF4FA59180
:10062000B4918FB7F894111105C09C91ED2FE0950E
:10063000E92302C0EC91ED2BEC938FBFDF91CF91BA
:100640001F9108950895EE0FFF1F0590F491E02D7E
:10065000099410E0CDE5D0E004C0FE010E94230320
:0C0660002196CE35D107C9F7F894FFCFE2
:00000001FF
