S00F00004C6564437562652E7372656381
S11300000C945E000C947B000C947B000C947B009D
S11300100C947B000C947B000C947B000C947B0070
S11300200C947B000C947B000C947B000C947B0060
S11300300C947B000C947B000C947B000C947B0050
S11300400C94A7010C947B000C947B000C947B0013
S11300500C947B000C947B000C947B000C947B0030
S11300600C947B000C947B0000000008000201004B
S1130070000304070000000000000000010204085F
S113008010204080010204081020010204081020FE
S1130090040404040404040402020202020203032A
S11300A00303030300000000250028002B000000C8
S11300B00000240027002A00B400B80011241FBE49
S11300C0CFEFD8E0DEBFCDBF21E0A0E0B1E001C0BA
S11300D01D92AF38B207E1F710E0CDE5D0E004C0DF
S11300E02197FE010E940F03CC35D107C9F70E9466
S11300F098010C9415030C9400001F93CF93DF9385
S113010080E091E00E94E10061E087E00E94A202A9
S1130110D0E0C0E010E0212F4C2F6D2F80E091E063
S11301200E94F1001F5F1830B1F7CF5FC83091F71C
S1130130DF5FD83071F780E091E0DF91CF911F91BC
S11301400C94150164EF71E080E090E00E941602C7
S113015061E087E00E94DE0280E091E00E947B0182
S113016060E087E00C94DE0280E091E00C94BC0037
S113017080E091E00C94D700CF93DF93FC011082D0
S11301801182EC012696D383C283DC01AA5BBF4FA4
S1130190B583A48380E4FE01982F11929A95E9F720
S11301A0FD0111928A95E9F7DF91CF9108950895A1
S11301B02D9888E42B9A2B988150E1F72C9A2C984F
S11301C00895CF93DF93EC0181E08983CE010E94EF
S11301D0D800259A239A249A82E08983DF91CF91CB
S11301E00895683000F54830F0F42830E0F4DC017C
S11301F01496ED91FC911597B8E04B9FE00DF11D1D
S11302001124E20FF11D81E090E0A0E0B0E004C011
S1130210880F991FAA1FBB1F6A95D2F72081822BD2
S1130220808380E0089581E00895FC0121812230DB
S113023021F423E0218380E0089581E0089587E09C
S113024090E070E09B01082E02C0359527950A9432
S1130250E2F720FF02C02D9A01C02D982B9A2B980B
S1130260019780F70895EF92FF920F931F93CF9316
S1130270DF93683030F5EC01062F10E081E090E068
S11302809C0102C0220F331F6A95E2F7B901CE0127
S11302900E941F01E12CF12CEA81FB81EE0DFF1D70
S11302A0E00FF11F6081CE010E941F0138E0E30ED0
S11302B0F11C80E4E816F10479F72C9A2C9880E07C
S11302C001C081E0DF91CF911F910F91FF90EF90DA
S11302D00895FC018181833061F4828193812481BA
S11302E03581338322839583848382E0818380E014
S11302F0089581E00895CF93DF93FC0121813EEFBF
S1130300320F323088F4EC018081883030F0108272
S1130310233019F4CF010E9469016881CE010E9443
S1130320330188818F5F8883DF91CF910895089589
S11303300E943E020E9497010E947D00C0E0D0E02E
S11303400E94A2002097E1F30E940000F9CF1F92BF
S11303500F920FB60F9211242F933F938F939F9375
S1130360AF93BF938091870190918801A0918901F7
S1130370B0918A013091860123E0230F2D3720F4B8
S11303800196A11DB11D05C026E8230F0296A11DEB
S1130390B11D209386018093870190938801A093D7
S11303A08901B0938A0180918B0190918C01A09175
S11303B08D01B0918E010196A11DB11D80938B0119
S11303C090938C01A0938D01B0938E01BF91AF9156
S11303D09F918F913F912F910F900FBE0F901F907F
S11303E018953FB7F89480918B0190918C01A0915E
S11303F08D01B0918E0126B5A89B05C02F3F19F041
S11304000196A11DB11D3FBFBA2FA92F982F882790
S1130410820F911DA11DB11DBC01CD0142E0660FEB
S1130420771F881F991F4A95D1F70895CF92DF92BD
S1130430EF92FF92CF93DF936B017C010E94F10155
S1130440EB01C114D104E104F10489F00E940E030C
S11304500E94F1016C1B7D0B683E734090F381E0B8
S1130460C81AD108E108F108C851DC4FEACFDF917E
S1130470CF91FF90EF90DF90CF900895789484B55A
S1130480826084BD84B5816084BD85B5826085BD8C
S113049085B5816085BDEEE6F0E080818160808372
S11304A0E1E8F0E010828081826080838081816055
S11304B08083E0E8F0E0808181608083E1EBF0E01C
S11304C0808184608083E0EBF0E0808181608083C0
S11304D0EAE7F0E0808184608083808182608083A9
S11304E08081816080838081806880831092C100D4
S11304F00895833081F028F4813099F08230A1F09E
S113050008958730A9F08830B9F08430D1F480910F
S113051080008F7D03C0809180008F77809380005E
S1130520089584B58F7702C084B58F7D84BD089506
S11305308091B0008F7703C08091B0008F7D80934D
S1130540B0000895CF93DF9390E0FC01E458FF4F8F
S11305502491FC01E057FF4F8491882361F190E0DE
S1130560880F991FFC01E255FF4FC591D491FC01FE
S1130570EC55FF4FA591B491611109C09FB7F89450
S11305808881209582238883EC912E230BC06230CE
S113059061F49FB7F8943881822F809583238883F0
S11305A0EC912E2B2C939FBF06C08FB7F894E88153
S11305B02E2B28838FBFDF91CF9108951F93CF9364
S11305C0DF93282F30E0F901E859FF4F8491F901B6
S11305D0E458FF4FD491F901E057FF4FC491CC2365
S11305E0C9F0162F81110E947902EC2FF0E0EE0F72
S11305F0FF1FEC55FF4FA591B4918FB7F8941111DB
S113060005C09C91ED2FE095E92302C0EC91ED2B00
S1130610EC938FBFDF91CF911F9108950895EE0F52
S1130620FF1F0590F491E02D099410E0CDE5D0E092
S113063004C0FE010E940F032196CE35D107C9F7ED
S1070640F894FFCF58
S9030000FC
