:100000000C945F040C9487040C9487040C9487046C
:100010000C9487040C9487040C9487040C94870434
:100020000C9487040C9487040C9487040C94870424
:100030000C9487040C9487040C9487040C94870414
:100040000C9492090C9487040C9489080C94BB08B6
:100050000C9487040C9487040C9487040C948704F4
:100060000C9487040C94870400000000000000003A
:100070007E81A581BD99817E7EFFDBFFC3E7FF7E88
:10008000367F7F7F3E1C0800081C3E7F3E1C080018
:100090001C3E1C7F7F6B081C08081C3E7F3E081C12
:1000A0000000000000000000000000000000000050
:1000B0000000000000000000000000000000000040
:1000C000F0E0F0BE3333331E3C6666663C187E18A3
:1000D0000000000000000000FEC6FEC6C6E6670382
:1000E000995A3CE7E73C5A9901071F7F1F07010017
:1000F00040707C7F7C704000183C7E18187E3C1855
:100100006666666666006600FEDBDBDED8D8D80071
:100110007EC31E33331E311F000000007E7E7E0032
:10012000183C7E187E3C18FF183C7E1818181800E2
:10013000181818187E3C18000018307F301800007E
:10014000000C067F060C000000000303037F000084
:10015000002466FF6624000000183C7EFFFF0000BC
:1001600000FFFF7E3C1800000000000000000000BF
:100170000C1E1E0C0C000C00363636000000000071
:1001800036367F367F3636000C3E031E301F0C009D
:10019000006333180C6663001C361C6E3B336E0024
:1001A0000606030000000000180C0606060C1800E6
:1001B000060C1818180C060000663CFF3C66000090
:1001C000000C0C3F0C0C000000000000000E0C06A0
:1001D0000000003F0000000000000000000C0C00C8
:1001E0006030180C060301001E333B3F37331E00FE
:1001F0000C0F0C0C0C0C3F001E33301C06333F0060
:100200001E33301C30331E00383C36337F30300014
:100210003F031F3030331E001C06031F33331E0004
:100220003F3330180C0606001E33331E33331E00D6
:100230001E33333E30180E0000000C0C000C0C0076
:1002400000000C0C000E0C06180C0603060C18001F
:1002500000003F003F000000060C1830180C06009C
:100260001E3330180C000C003E637B7B7B031E00AA
:100270000C1E33333F3333003F66663E66663F00F5
:100280003C66030303663C003F36666666363F0005
:100290007F46161E16467F007F46161E16060F0066
:1002A0003C66030373667C003333333F33333300E0
:1002B0001E0C0C0C0C0C1E007830303033331E003A
:1002C0006766361E366667000F06060646667F00BE
:1002D00063777F6B6363630063676F7B7363630044
:1002E0001C36636363361C003F66663E06060F00DD
:1002F0001E3333333B1E38003F66663E1E366700B2
:100300001E33071C38331E003F2D0C0C0C0C1E0036
:100310003333333333333F0033333333331E0C0043
:100320006363636B7F7763006363361C36636300CC
:100330003333331E0C0C1E007F33190C46637F00D1
:100340001E06060606061E0003060C183060400056
:100350001E18181818181E00081C3663000000002C
:1003600000000000000000FF0C0C1800000000005E
:1003700000001E303E336E0007063E6666663D0096
:1003800000001E3303331E003830303E33336E001E
:1003900000001E333F031E001C36060F06060F002A
:1003A00000006E33333E301F0706366E6666670008
:1003B0000C000E0C0C0C1E0018001E1818181B0E3A
:1003C000070666361E3667000E0C0C0C0C0C1E0061
:1003D0000000377F6B63630000001F33333333004B
:1003E00000001E3333331E0000003B66663E060FDE
:1003F00000006E33333E307800001B3636060F00A7
:1004000000003E031E301F00080C3E0C0C2C180090
:100410000000333333336E0000003333331E0C00DF
:10042000000063636B7F3600000063361C36630098
:1004300000003333333E301F00003F190C263F00CD
:10044000380C0C070C0C3800181818001818180075
:10045000070C0C380C0C07006E3B0000000000007D
:10046000081C366363637F001E330303331E0C06D0
:100470000033003333337E00180C1E333F031E005D
:100480007EC33C607C66FC0033001E303E337E0041
:10049000060C1E303E337E003C663C607C66FC00F1
:1004A000001E3303331E0C067EC33C667E063C00F2
:1004B00033001E333F031E00060C1E333F031E0095
:1004C00033000E0C0C0C1E003E631C1818183C0068
:1004D000060C0E0C0C0C1E00330C1E33333F330085
:1004E0000C120C1E333F3300180C3F061E063F0053
:1004F0000000FE30FE33FE007C36337F3333730062
:100500001E33001E33331E000033001E33331E0023
:10051000060C001E33331E001E33003333337E00BF
:10052000060C003333337E0000330033333F301F7B
:1005300063003E6363633E003300333333331E0096
:1005400000003E736B673E001C36260F06673F00B7
:100550005C36736B67361D000000331E0C1E3300C3
:1005600070D8187E18181B0E180C1E303E337E00F3
:10057000180C0E0C0C0C1E003018001E33331E001D
:100580003018003333337E006E3B001F33333300AB
:100590006E3B00373F3B33003C36367C007E00002C
:1005A0003C66663C007E00000C000C0603331E0017
:1005B0003C5AA59D95663C000000003F303000008D
:1005C00067361E7EC67319F867361ECEE6B3F9C0CD
:1005D00000180018183C3C1800CC663366CC0000AC
:1005E000003366CC663300004411441144114411B9
:1005F000AA55AA55AA55AA55BBEEBBEEBBEEBBEE5B
:100600001818181818181818181818181F18181863
:1006100030180C1E333F33001E210C1E333F3300B5
:1006200003060C1E333F33003C429D859D423C0037
:100630006C6C6F606F6C6C6C6C6C6C6C6C6C6C6C00
:1006400000007F606F6C6C6C6C6C6F607F000000F2
:1006500018187E03037E181833331E3F0C3F0C0C12
:10066000000000001F18181818181818F8000000CB
:1006700018181818FF00000000000000FF181818D4
:1006800018181818F818181800000000FF000000CB
:1006900018181818FF1818186E3B1E303E337E00CD
:1006A0006E3B0C1E333F33006C6CEC0CFC00000006
:1006B0000000FC0CEC6C6C6C6C6CEF00FF0000003C
:1006C0000000FF00EF6C6C6C6C6CEC0CEC6C6C6CF8
:1006D0000000FF00FF0000006C6CEF00EF6C6C6C22
:1006E00000417F36367F41001B0E1B303C361C001C
:1006F0003F36666F66363F001E213F061E063F00EE
:1007000033003F061E063F00060C3F061E063F0054
:100710000003020700000000180C1E0C0C0C1E0049
:100720001E211E0C0C0C1E0033001E0C0C0C1E0097
:10073000181818181F00000000000000F8181818FA
:10074000FFFFFFFFFFFFFFFF00000000FFFFFFFFB5
:100750001818180018181800060C1E0C0C0C1E0097
:10076000FFFFFFFF00000000180C3E6363633E00C4
:10077000001E331F331F03033E413E6363633E008D
:100780000C183E6363633E006E3B001E33331E0055
:100790006E3B3E6363633E0000666666663E06032C
:1007A00000071E361E060F000F063E663E060F00AF
:1007B000180C333333331E001E21003333331E0035
:1007C000060C333333331E00180C0033333F301F15
:1007D000180C33331E0C1E00003F00000000000008
:1007E000180C000000000000000000003F000000A6
:1007F0000C0C3F0C0C003F000000003F003F0000CD
:1008000067341ECCE7B3F9C0FEDBDBDED8D8D800F6
:100810007EC31E33331E311F0C0C003F000C0C0036
:100820000000000000000C061C36361C0000000012
:10083000003300000000000000000000180000006D
:100840001C1E18187E0000003E703C703E00000028
:100850001E301C063E00000000003C3C3C3C0000FA
:10086000000000000000000000000008000201007D
:10087000000304070000000000000000010204085B
:1008800010204080010204081020010204081020FA
:100890000404040404040404020202020202030326
:1008A0000303030300000000250028002B000000C4
:1008B0000000240027002A002705EB083105112439
:1008C0001FBECFEFD8E0DEBFCDBF11E0A0E0B1E0AA
:1008D000E8EAF7E102C005900D92AE32B107D9F710
:1008E00022E0AEE2B1E001C01D92A136B207E1F70D
:1008F00014E0CEE5D4E004C02197FE010E94C10BB4
:10090000CC35D107C9F70E9419090C94C70B0C9478
:10091000000080912F0190913001883C910569F58C
:1009200083E391E00E94FA0583E391E00E940606CA
:1009300021E041E062E081E391E00E94C70622E00D
:1009400041E062E081E391E00E94C70623E041E0DC
:1009500062E081E391E00E94C70624E041E062E0AA
:1009600081E391E00E94C7061092300110922F019E
:1009700080912E018F5F80932E0180912F019091A5
:10098000300101969093300180932F0161E070E077
:1009900080E090E00E94010A61E087E00E94C90ABD
:1009A00083E391E00E945C0660E087E00C94C90A52
:1009B000EF92FF921F93CF93DF9398E0899F70018E
:1009C0001124C0E0D0E017E0FE01EE0DFF1DE85954
:1009D000FF4F2491412F4C1B60E083E391E00E9484
:1009E000BB052196C830D10579F7DF91CF911F91D2
:1009F000FF90EF90089583E391E00E94960561E0F7
:100A000087E00E948D0A83E391E00E945A0583E308
:100A100091E00E94FA0583E391E00E9406062EE72A
:100A200041E061E083E391E00E94A6052CE347E00A
:100A300062E083E391E00E94A60528E145E063E0DF
:100A400083E391E00E94A60583E00C94D80483E33D
:100A500091E00E94390563E371E081E391E00C9439
:100A6000C20681E391E00E94C60683E391E00C9404
:100A70005905CF93DF93FC0110821182DC01AA5744
:100A8000BF4F1C9211961C92EC012696D383C28311
:100A9000A154B109B583A48380E4FE01982F11927B
:100AA0009A95E9F7FD0111928A95E9F7DF91CF91C7
:100AB000089508950F931F93CF93DF93CDB7DEB7BB
:100AC0006E970FB6F894DEBF0FBECDBF8C0191E1DB
:100AD000E0E0F1E0DE01119601900D929A95E1F7C8
:100AE000FE0172968DE0DF011D928A95E9F7BE0145
:100AF0006F5F7F4F8BEB91E00E94800983E0F801EC
:100B0000818380E06E960FB6F894DEBF0FBECDBF36
:100B1000DF91CF911F910F9108952D9888E42B9A22
:100B20002B988150E1F72C9A2C980895CF93DF935E
:100B3000EC0181E08983CE010E948D05259A239ADC
:100B4000249A82E08983DF91CF910895683088F4F8
:100B5000483078F4DC011496ED91FC911597B8E0DB
:100B60006B9FE00DF11D1124E40FF11D208380E047
:100B7000089581E00895DF92EF92FF920F931F9303
:100B8000CF93DF93522F01E010E020E030E004C06B
:100B9000000F111F221F331F6A95D2F7D02E009528
:100BA000A0E0B0E060E070E0252F30E050E0EC0124
:100BB000EC81FD817901062E02C0F594E7940A9438
:100BC000E2F7EA0FFB1FE40FF51F1081E0FE02C001
:100BD0001D2901C0102310836F5F7F4F1896683066
:100BE000710529F7DF91CF911F910F91FF90EF9041
:100BF000DF900895FC012181233031F4EA57FF4F43
:100C000081E0808380E0089581E00895FC012181E6
:100C1000233031F4E957FF4F81E0808380E008956D
:100C200081E0089587E090E070E09B01082E02C00B
:100C3000359527950A94E2F720FF02C02D9A01C04E
:100C40002D982B9A2B98019780F70895EF92FF9299
:100C50000F931F93CF93DF93683030F5EC01062F8D
:100C600010E081E090E09C0102C0220F331F6A95E2
:100C7000E2F7B901CE010E941206E12CF12CEA81C3
:100C8000FB81EE0DFF1DE00FF11F6081CE010E9480
:100C9000120638E0E30EF11C80E4E816F10479F75F
:100CA0002C9A2C9880E001C081E0DF91CF911F91B8
:100CB0000F91FF90EF900895CF93DF93FC01818116
:100CC000833011F580818830B8F01082EF01CA5767
:100CD000DF4F8881882381F0DF01A957BF4F8C91B6
:100CE000882351F08281938124813581338322834B
:100CF0009583848318821C92EF016081CF010E944A
:100D0000260688818F5F8883DF91CF9108950F93A6
:100D1000DC0150E030E00023D1F0FA0193E0EE0F67
:100D2000FF1F9A95E1F7AD014E0F5F1FFA01E20F29
:100D3000F31F81E090E0A0E0B0E004C0880F991FAD
:100D4000AA1FBB1F6A95D2F72081822B18C083E0AF
:100D5000440F551F8A95E1F74A0F5B1FFA01E20F16
:100D6000F31F81E090E0A0E0B0E004C0880F991F7D
:100D7000AA1FBB1F6A95D2F7809590818923808333
:100D80000F910895FC0171836083089508952F9257
:100D90003F924F925F926F927F928F929F92AF920B
:100DA000BF92CF92DF92EF92FF920F931F93CF9358
:100DB000DF9300D01F92CDB7DEB73FEF320F3A83FB
:100DC000343008F08DC17C014111C3C0623009F09C
:100DD00089C188E0821B8B8398E0899F30011124B0
:100DE000A32EB12C250193E0440C551C9A95E1F7F4
:100DF000C12CD12C87E090E04C018A189B083C2C38
:100E00002A80422D842F042E000C990B88159905F9
:100E10000CF531E0340FD701ED91FC91A281B38143
:100E200088E0389FA00DB11D1124AC0DBD1D0C91A3
:100E300010E00A8002C0159507950A94E2F7017048
:100E4000232D6A818481958139830E9487063981A7
:100E5000432FD8CF822D022C000C990B88159905B1
:100E6000FCF431E0320DD701ED91FC91A281B38108
:100E7000A60DB71DAC0DBD1D0C9110E0032E02C0D8
:100E8000159507950A94E2F70170232D4B81622D89
:100E90008481958139830E9487063981232EDACF98
:100EA0002B80422D842F042E000C990BA816B90616
:100EB0000CF53FEF340FD701ED91FC91A281B38186
:100EC00088E0389FA00DB11D1124AC0DBD1D0C9103
:100ED00010E00B8002C0159507950A94E2F70170A7
:100EE000232D6B818481958139830E948706398106
:100EF000432FD8CF822D022C000C990BA816B906CF
:100F0000FCF43FEF320DD701ED91FC91A281B3814A
:100F1000A40DB51DAC0DBD1D0C9110E0032E02C03B
:100F2000159507950A94E2F70170232D4A81622DE9
:100F30008481958139830E9487063981232EDACFF7
:100F4000BFEFCB1ADB0A38E0C316D10409F057CF44
:100F5000C9C0413009F0C6C0623009F0C3C03A814F
:100F6000A32EB12C350183E0660C771C8A95E1F73E
:100F700088E0821B8B8398E0899F20011124C12C7B
:100F8000D12C87E090E04C018A189B083C2C2A80E9
:100F9000622D862F062E000C990B88159905F4F406
:100FA00031E0360FD701ED91FC91A281B381A60DFE
:100FB000B71DAC0DBD1D0C9110E0032E02C01595A0
:100FC00007950A94E2F70170232D4A818481958167
:100FD00039830E9487063981632FDBCF822D022C53
:100FE000000C990B8815990514F531E0320DD701E5
:100FF000ED91FC91A281B38188E0389FA00DB11DD5
:101000001124AC0DBD1D0C9110E00B8002C0159594
:1010100007950A94E2F70170232D422D6B8184819C
:10102000958139830E9487063981232ED7CF2B8063
:10103000622D862F062E000C990BA816B906F4F423
:101040003FEF360FD701ED91FC91A281B381A40D42
:10105000B51DAC0DBD1D0C9110E0032E02C0159501
:1010600007950A94E2F70170232D4B8184819581C5
:1010700039830E9487063981632FDBCF822D022CB2
:10108000000C990BA816B90614F53FEF320DD701E5
:10109000ED91FC91A281B38188E0389FA00DB11D34
:1010A0001124AC0DBD1D0C9110E00A2C02C0159549
:1010B00007950A94E2F70170232D422D6A818481FD
:1010C000958139830E9487063981232ED7CF9FEFE0
:1010D000C91AD90AA8E0CA16D10409F057CF02C02C
:1010E00081E001C080E00F900F900F90DF91CF91D1
:1010F0001F910F91FF90EF90DF90CF90BF90AF9036
:101100009F908F907F906F905F904F903F902F9027
:1011100008951F920F920FB60F9211242F938F9361
:101120009F93EF93FF93E091CB01F091CC018081ED
:10113000E091D101F091D20182FD12C090818091A5
:10114000D4018F5F8F732091D501821751F0E09108
:10115000D401F0E0E554FE4F958F8093D40101C097
:101160008081FF91EF919F918F912F910F900FBEF2
:101170000F901F9018951F920F920FB60F92112487
:101180002F933F934F935F936F937F938F939F938F
:10119000AF93BF93EF93FF938BEB91E00E94350BDE
:1011A000FF91EF91BF91AF919F918F917F916F913F
:1011B0005F914F913F912F910F900FBE0F901F9015
:1011C00018958BEB91E00E94F90A21E0892B09F434
:1011D00020E0822F0895EBEBF1E01382128288EE7B
:1011E00093E0A0E0B0E084839583A683B78382E296
:1011F00091E09183808385EC90E09587848784ECEF
:1012000090E09787868780EC90E0918B808B81ECD3
:1012100090E0938B828B82EC90E0958B848B86ECB4
:1012200090E0978B868B118E128E138E148E0895FC
:1012300008950E94290A0E9418090E94FB04C7E22F
:10124000DBE00E9489042097E1F30E94270BF9CF8D
:10125000CF92DF92EF92FF920F931F93CF93DF9382
:101260006C01EB017B01E40EF51E00E010E0CE15F1
:10127000DF0561F06991D601ED91FC910190F0815B
:10128000E02DC6010995080F191FF1CFC801DF91A4
:10129000CF911F910F91FF90EF90DF90CF90089525
:1012A0006115710579F0FB0101900020E9F7319794
:1012B000AF01461B570BDC01ED91FC910280F381DD
:1012C000E02D099480E090E00895DC01ED91FC911F
:1012D0000190F081E02D09940F931F93CF93DF933A
:1012E000EC016DE00E9465098C016AE0CE010E946C
:1012F0006509800F911FDF91CF911F910F91089584
:101300000F931F93CF93DF93EC010E9450098C0140
:10131000CE010E946C09800F911FDF91CF911F9128
:101320000F9108951F920F920FB60F9211242F93D1
:101330003F938F939F93AF93BF9380915902909166
:101340005A02A0915B02B0915C023091580223E0F6
:10135000230F2D3720F40196A11DB11D05C026E8ED
:10136000230F0296A11DB11D2093580280935902AC
:1013700090935A02A0935B02B0935C0280915D024D
:1013800090915E02A0915F02B09160020196A11D52
:10139000B11D80935D0290935E02A0935F02B093B3
:1013A0006002BF91AF919F918F913F912F910F90CC
:1013B0000FBE0F901F9018953FB7F89480915D0273
:1013C00090915E02A0915F02B091600226B5A89B49
:1013D00005C02F3F19F00196A11DB11D3FBFBA2FC7
:1013E000A92F982F8827820F911DA11DB11DBC0127
:1013F000CD0142E0660F771F881F991F4A95D1F7EC
:101400000895CF92DF92EF92FF92CF93DF936B011B
:101410007C010E94DC09EB01C114D104E104F10458
:1014200089F00E94C00B0E94DC096C1B7D0B683E9A
:10143000734090F381E0C81AD108E108F108C8515F
:10144000DC4FEACFDF91CF91FF90EF90DF90CF900C
:101450000895789484B5826084BD84B5816084BD2C
:1014600085B5826085BD85B5816085BDEEE6F0E01D
:10147000808181608083E1E8F0E010828081826079
:101480008083808181608083E0E8F0E080818160FA
:101490008083E1EBF0E0808184608083E0EBF0E02A
:1014A000808181608083EAE7F0E0808184608083CE
:1014B0008081826080838081816080838081806878
:1014C00080831092C1000895833081F028F4813028
:1014D00099F08230A1F008958730A9F08830B9F0F2
:1014E0008430D1F4809180008F7D03C08091800092
:1014F0008F7780938000089584B58F7702C084B57C
:101500008F7D84BD08958091B0008F7703C0809156
:10151000B0008F7D8093B0000895CF93DF9390E06B
:10152000FC01E458F74F2491FC01E057F74F8491F8
:10153000882361F190E0880F991FFC01E255F74F75
:10154000C591D491FC01EC55F74FA591B49161116F
:1015500009C09FB7F8948881209582238883EC91F5
:101560002E230BC0623061F49FB7F8943881822F2C
:10157000809583238883EC912E2B2C939FBF06C0EC
:101580008FB7F894E8812E2B28838FBFDF91CF91FE
:1015900008951F93CF93DF93282F30E0F901E85986
:1015A000F74F8491F901E458F74FD491F901E057CE
:1015B000F74FC491CC23C9F0162F81110E94640A01
:1015C000EC2FF0E0EE0FFF1FEC55F74FA591B49113
:1015D0008FB7F894111105C09C91ED2FE095E92388
:1015E00002C0EC91ED2BEC938FBFDF91CF911F9157
:1015F0000895FC01918D228D892F90E0805C9F4F92
:10160000821B91098F7399270895FC01918D828D1A
:10161000981731F0828DE80FF11D858D90E00895C7
:101620008FEF9FEF0895FC01918D828D981761F0E7
:10163000828DDF01A80FB11D5D968C91928D9F5F09
:101640009F73928F90E008958FEF9FEF089581EE42
:1016500098E0892B49F080E090E0892B29F00E94E6
:10166000E10881110C9400000895FC01848DDF01D4
:10167000A80FB11DA35ABF4F2C91848D90E0019605
:101680008F739927848FA689B7892C93A089B189F4
:101690008C9180648C93938D848D981306C00288FE
:1016A000F389E02D80818F7D80830895CF93DF9330
:1016B000EC01888D8823C9F0EA89FB89808185FD4A
:1016C00005C0A889B9898C9186FD0FC00FB607FCAB
:1016D000F5CF808185FFF2CFA889B9898C9185FFEC
:1016E000EDCFCE010E94350BE7CFDF91CF9108956A
:1016F000EF92FF920F931F93CF93DF93EC019B8D9B
:101700008C8D981305C0E889F989808185FD27C0F3
:10171000F62E0B8D10E00F5F1F4F0F731127E02E79
:101720008C8DE8120CC00FB607FCFACFE889F98956
:10173000808185FFF5CFCE010E94350BF1CF8B8DD7
:10174000FE01E80FF11DE35AFF4FF0820B8FEA898B
:10175000FB8980818062808381E0888F08C0EE8968
:10176000FF896083E889F98980818064808381E0D2
:1017700090E0DF91CF911F910F91FF90EF9008952E
:101780000895EE0FFF1F0590F491E02D099414E0E9
:10179000CEE5D4E004C0FE010E94C10B2196CF35F6
:0817A000D107C9F7F894FFCF4F
:1017A800416E6472656173204275726E69636B6C19
:1017B8000000000000000000000000000000000021
:0E17C8000000780B2809F90A130B050B560BCD
:00000001FF
