:100000000C945E000C947B000C947B000C947B00A1
:100010000C947B000C947B000C947B000C947B0074
:100020000C947B000C947B000C947B000C947B0064
:100030000C947B000C947B000C947B000C947B0054
:100040000C94A9010C947B000C947B000C947B0015
:100050000C947B000C947B000C947B000C947B0034
:100060000C947B000C947B0000000008000201004F
:100070000003040700000000000000000102040863
:100080001020408001020408102001020408102002
:10009000040404040404040402020202020203032E
:1000A0000303030300000000250028002B000000CC
:1000B0000000240027002A009200990011241FBE8E
:1000C000CFEFD8E0DEBFCDBF21E0A0E0B1E001C0BE
:1000D0001D92A239B207E1F710E0CDE5D0E004C0EF
:1000E0002197FE010E941103CC35D107C9F70E9468
:1000F0009A010C9417030C94000080E091E00E9498
:10010000DA0020E040E060E080E091E00C94F30051
:1001100064EF71E080E090E00E94180280E091E0DE
:100120000C9483012CE04BE06DE080E091E00C94B6
:100130009D0080E091E00C94BB00CF93DF93FC0125
:1001400060834183228313821482EC012996D68333
:10015000C583DC01A75BBF4FB087A78380E4FE01A6
:10016000982F11929A95E9F7FD0111928A95E9F776
:10017000DF91CF91089508951F93CF93DF93EC0102
:1001800060E088810E94E00218E461E089810E94B9
:10019000E00260E089810E94E0021150B1F761E065
:1001A0008A810E94E00260E08A81DF91CF911F91F5
:1001B0000C94E002CF93DF93EC0181E08C83CE01BD
:1001C0000E94BC0061E088810E94A40261E08981F4
:1001D0000E94A40261E08A810E94A40282E08C83D2
:1001E000DF91CF910895683020F5483010F5283020
:1001F00000F5DC011796ED91FC911897B8E04B9F44
:10020000E00DF11D1124E20FF11D28E030E0261B66
:10021000310981E090E0A0E0B0E004C0880F991FB0
:10022000AA1FBB1F2A95D2F72081822B808380E0F2
:10023000089581E00895EF92FF920F931F93CF935B
:10024000DF938C01C0E0D0E0E62EF12CB7010C2E3C
:1002500002C0759567950A94E2F761707727F801F7
:1002600080810E94E00261E0F80181810E94E00249
:1002700060E0F80181810E94E0022196C830D1053A
:1002800029F7DF91CF911F910F91FF90EF90089583
:10029000EF92FF920F931F93CF93DF93683058F53F
:1002A000EC01062F10E0C801019761E070E001C089
:1002B000660F8A95EAF7CE010E941B01E12CF12C12
:1002C000ED81FE81EE0DFF1DE00FF11F6081CE017B
:1002D0000E941B0188E0E80EF11C80E4E816F1049E
:1002E00079F761E08A810E94E00260E08A810E94E1
:1002F000E00280E001C081E0DF91CF911F910F917A
:10030000FF90EF900895CF93DF93FC01848182509A
:10031000823060F46381683010F0138207C0EF010F
:10032000CF010E9448018B818F5F8B83DF91CF913A
:10033000089508950E9440020E9499010E947D0044
:10034000C0E0D0E00E9488002097E1F30E94000006
:10035000F9CF1F920F920FB60F9211242F933F9354
:100360008F939F93AF93BF9380918A0190918B015C
:10037000A0918C01B0918D013091890123E0230F70
:100380002D3720F40196A11DB11D05C026E8230FCD
:100390000296A11DB11D2093890180938A0190933B
:1003A0008B01A0938C01B0938D0180918E0190916F
:1003B0008F01A0919001B09191010196A11DB11DF5
:1003C00080938E0190938F01A0939001B09391013F
:1003D000BF91AF919F918F913F912F910F900FBE41
:1003E0000F901F9018953FB7F89480918E019091CF
:1003F0008F01A0919001B091910126B5A89B05C0F5
:100400002F3F19F00196A11DB11D3FBFBA2FA92F93
:10041000982F8827820F911DA11DB11DBC01CD0110
:1004200042E0660F771F881F991F4A95D1F70895FC
:10043000CF92DF92EF92FF92CF93DF936B017C011B
:100440000E94F301EB01C114D104E104F10489F02D
:100450000E9410030E94F3016C1B7D0B683E7340E9
:1004600090F381E0C81AD108E108F108C851DC4FC7
:10047000EACFDF91CF91FF90EF90DF90CF9008957A
:10048000789484B5826084BD84B5816084BD85B56F
:10049000826085BD85B5816085BDEEE6F0E0808136
:1004A00081608083E1E8F0E0108280818260808357
:1004B000808181608083E0E8F0E0808181608083DA
:1004C000E1EBF0E0808184608083E0EBF0E080810C
:1004D00081608083EAE7F0E08081846080838081AE
:1004E0008260808380818160808380818068808356
:1004F0001092C1000895833081F028F4813099F082
:100500008230A1F008958730A9F08830B9F08430A6
:10051000D1F4809180008F7D03C0809180008F771F
:1005200080938000089584B58F7702C084B58F7D55
:1005300084BD08958091B0008F7703C08091B00092
:100540008F7D8093B0000895CF93DF9390E0FC01FE
:10055000E458FF4F2491FC01E057FF4F849188231A
:1005600061F190E0880F991FFC01E255FF4FC591A2
:10057000D491FC01EC55FF4FA591B491611109C0D4
:100580009FB7F8948881209582238883EC912E234D
:100590000BC0623061F49FB7F8943881822F809548
:1005A00083238883EC912E2B2C939FBF06C08FB79B
:1005B000F894E8812E2B28838FBFDF91CF91089587
:1005C0001F93CF93DF93282F30E0F901E859FF4FB5
:1005D0008491F901E458FF4FD491F901E057FF4F9E
:1005E000C491CC23C9F0162F81110E947B02EC2FFD
:1005F000F0E0EE0FFF1FEC55FF4FA591B4918FB7C0
:10060000F894111105C09C91ED2FE095E92302C0EB
:10061000EC91ED2BEC938FBFDF91CF911F9108955B
:100620000895EE0FFF1F0590F491E02D099410E05E
:10063000CDE5D0E004C0FE010E9411032196CE3525
:08064000D107C9F7F894FFCFC0
:00000001FF
