S00F00004C6564437562652E7372656381
S11300000C945E000C947B000C947B000C947B009D
S11300100C947B000C947B000C947B000C947B0070
S11300200C947B000C947B000C947B000C947B0060
S11300300C947B000C947B000C947B000C947B0050
S11300400C9481020C947B000C947B000C947B0038
S11300500C947B000C947B000C947B000C947B0030
S11300600C947B000C947B0000000008000201004B
S1130070000304070000000000000000010204085F
S113008010204080010204081020010204081020FE
S1130090040404040404040402020202020203032A
S11300A00303030300000000250028002B000000C8
S11300B00000240027002A00CB00D30011241FBE17
S11300C0CFEFD8E0DEBFCDBF21E0A0E0B1E001C0BA
S11300D01D92A439B207E1F710E0CDE5D0E004C0E9
S11300E02197FE010E94E903CC35D107C9F70E948C
S11300F072020C94EF030C94000083E091E00E94E0
S11301000A0161E087E00E947C0320E841E060E0AE
S113011083E091E00E941A0183E091E00E94FC00D8
S113012083E091E00E94B00183E091E00C94BC0173
S11301308091000190910101883E934089F461E02F
S113014082E091E00E943F0283E091E00E94B001CE
S113015083E091E00E94BC01109201011092000121
S11301608091000190910101019690930101809387
S1130170000161E070E080E090E00E94F00261E044
S113018087E00E94B80383E091E00E94120260E0DD
S113019087E00C94B80383E091E00E94DB0082E0E6
S11301A091E00C943D0282E091E00E943E0283E0E3
S11301B091E00C94FB00CF93DF93FC011082118239
S11301C0DC01AA57BF4F1C9211961C92EC01269693
S11301D0D383C283A154B109B583A48380E4FE010F
S11301E0982F11929A95E9F7FD0111928A95E9F7F2
S11301F0DF91CF910895089523E0FC01218380E0ED
S113020008952D9888E42B9A2B988150E1F72C9A25
S11302102C980895CF93DF93EC0181E08983CE017C
S11302200E940101259A239A249A82E08983DF910E
S1130230CF910895683088F4483078F4DC0114963E
S1130240ED91FC911597B8E06B9FE00DF11D112421
S1130250E40FF11D208380E0089581E008958F92DA
S11302609F92AF92BF92CF92DF92EF92FF9221E0E2
S113027030E0D90102C0AA0FBB1F6A95E2F7BD01A5
S1130280DC011296ED91FC911397E40FF11D20E02F
S113029030E080E0812C912C54018394408150E023
S11302A04623572375016401022E04C0CC0CDD1CC7
S11302B0EE1CFF1C0A94D2F7452B11F08C2902C0C6
S11302C0C0948C212F5F3F4F38962830310531F789
S11302D0FF90EF90DF90CF90BF90AF909F908F9062
S11302E00895DF92EF92FF920F931F93CF93DF93C2
S11302F0522F01E010E020E030E004C0000F111F95
S1130300221F331F6A95D2F7D02E0095A0E0B0E0EB
S113031060E070E0252F30E050E0EC01EC81FD81DD
S11303207901062E02C0F594E7940A94E2F7EA0FE5
S1130330FB1FE40FF51F1081E0FE02C01D2901C060
S1130340102310836F5F7F4F18966830710529F76B
S1130350DF91CF911F910F91FF90EF90DF9008955F
S1130360FC012181233031F4EA57FF4F81E080837F
S113037080E0089581E00895FC012181233031F467
S1130380E957FF4F81E0808380E0089581E008957C
S113039087E090E070E09B01082E02C03595279518
S11303A00A94E2F720FF02C02D9A01C02D982B9ADF
S11303B02B98019780F70895EF92FF920F931F9364
S11303C0CF93DF93683030F5EC01062F10E081E025
S11303D090E09C0102C0220F331F6A95E2F7B90135
S11303E0CE010E94C801E12CF12CEA81FB81EE0DC3
S11303F0FF1DE00FF11F6081CE010E94C80138E0AB
S1130400E30EF11C80E4E816F10479F72C9A2C9899
S113041080E001C081E0DF91CF911F910F91FF90A7
S1130420EF900895CF93DF93FC018181833011F520
S113043080818830B8F01082EF01CA57DF4F88817D
S1130440882381F0DF01A957BF4F8C91882351F095
S113045082819381248135813383228395838483AC
S113046018821C92EF016081CF010E94DC01888117
S11304708F5F8883DF91CF910895089508950F9336
S11304801F93CF93DF93062FC0E0D0E011E01D0F40
S11304904C2F612F83E091E00E942F01282F4C2FD5
S11304A06D2F83E091E00E947101D12F173071F715
S11304B0002341F04C2F60E083E091E00E942F0183
S11304C0282F01C020E04C2F67E083E091E00E94D8
S11304D07101CF5FC830C9F6DF91CF911F910F91A1
S11304E0089508950E9418030E9471020E947D00DD
S11304F0C0E0D0E00E9498002097E1F30E94000041
S1130500F9CF1F920F920FB60F9211242F933F939E
S11305108F939F93AF93BF9380918C0190918D01A2
S1130520A0918E01B0918F0130918B0123E0230FB4
S11305302D3720F40196A11DB11D05C026E8230F17
S11305400296A11DB11D20938B0180938C01909381
S11305508D01A0938E01B0938F01809190019091B1
S11305609101A0919201B09193010196A11DB11D39
S11305708093900190939101A0939201B093930181
S1130580BF91AF919F918F913F912F910F900FBE8B
S11305900F901F9018953FB7F89480919001909117
S11305A09101A0919201B091930126B5A89B05C039
S11305B02F3F19F00196A11DB11D3FBFBA2FA92FDE
S11305C0982F8827820F911DA11DB11DBC01CD015B
S11305D042E0660F771F881F991F4A95D1F7089547
S11305E0CF92DF92EF92FF92CF93DF936B017C0166
S11305F00E94CB02EB01C114D104E104F10489F09F
S11306000E94E8030E94CB026C1B7D0B683E734082
S113061090F381E0C81AD108E108F108C851DC4F11
S1130620EACFDF91CF91FF90EF90DF90CF900895C4
S1130630789484B5826084BD84B5816084BD85B5B9
S1130640826085BD85B5816085BDEEE6F0E0808180
S113065081608083E1E8F0E01082808182608083A1
S1130660808181608083E0E8F0E080818160808324
S1130670E1EBF0E0808184608083E0EBF0E0808156
S113068081608083EAE7F0E08081846080838081F8
S113069082608083808181608083808180688083A0
S11306A01092C1000895833081F028F4813099F0CC
S11306B08230A1F008958730A9F08830B9F08430F1
S11306C0D1F4809180008F7D03C0809180008F776A
S11306D080938000089584B58F7702C084B58F7DA0
S11306E084BD08958091B0008F7703C08091B000DD
S11306F08F7D8093B0000895CF93DF9390E0FC0149
S1130700E458FF4F2491FC01E057FF4F8491882364
S113071061F190E0880F991FFC01E255FF4FC591EC
S1130720D491FC01EC55FF4FA591B491611109C01E
S11307309FB7F8948881209582238883EC912E2397
S11307400BC0623061F49FB7F8943881822F809592
S113075083238883EC912E2B2C939FBF06C08FB7E5
S1130760F894E8812E2B28838FBFDF91CF910895D1
S11307701F93CF93DF93282F30E0F901E859FF4FFF
S11307808491F901E458FF4FD491F901E057FF4FE8
S1130790C491CC23C9F0162F81110E945303EC2F6E
S11307A0F0E0EE0FFF1FEC55FF4FA591B4918FB70A
S11307B0F894111105C09C91ED2FE095E92302C036
S11307C0EC91ED2BEC938FBFDF91CF911F910895A6
S11307D00895EE0FFF1F0590F491E02D099410E0A9
S11307E0CDE5D0E004C0FE010E94E9032196CE3598
S10B07F0D107C9F7F894FFCF0B
S9030000FC
