S00F00004C6564437562652E7372656381
S11300000C945E000C947B000C947B000C947B009D
S11300100C947B000C947B000C947B000C947B0070
S11300200C947B000C947B000C947B000C947B0060
S11300300C947B000C947B000C947B000C947B0050
S11300400C947A010C947B000C947B000C947B0040
S11300500C947B000C947B000C947B000C947B0030
S11300600C947B000C947B0000000008000201004B
S1130070000304070000000000000000010204085F
S113008010204080010204081020010204081020FE
S1130090040404040404040402020202020203032A
S11300A00303030300000000250028002B000000C8
S11300B00000240027002A008B00920011241FBE98
S11300C0CFEFD8E0DEBFCDBF21E0A0E0B1E001C0BA
S11300D01D92A239B207E1F710E0CDE5D0E004C0EB
S11300E02197FE010E94E202CC35D107C9F70E9494
S11300F06B010C94E8020C94000080E091E00C94F5
S1130100D30064EF71E080E090E00E94E90180E0B8
S113011091E00C9454012CE04BE06DE080E091E020
S11301200C94960080E091E00C94B400CF93DF939C
S1130130FC0160834183228313821482EC0129969B
S1130140D683C583DC01A75BBF4FB087A78380E458
S1130150FE01982F11929A95E9F7FD0111928A9563
S1130160E9F7DF91CF91089508951F93CF93DF931B
S1130170EC0160E088810E94B10218E461E08981A9
S11301800E94B10260E089810E94B1021150B1F76E
S113019061E08A810E94B10260E08A81DF91CF919F
S11301A01F910C94B102CF93DF93EC0181E08C8317
S11301B0CE010E94B50061E088810E94750261E071
S11301C089810E94750261E08A810E94750282E041
S11301D08C83DF91CF910895EF92FF920F931F9339
S11301E0CF93DF938C01C0E0D0E0E62EF12CB70171
S11301F00C2E02C0759567950A94E2F76170772713
S1130200F80180810E94B10261E0F80181810E94BD
S1130210B10260E0F80181810E94B1022196C830E8
S1130220D10529F7DF91CF911F910F91FF90EF90A6
S11302300895EF92FF920F931F93CF93DF9368304B
S113024058F5EC01062F10E0C801019761E070E059
S113025001C0660F8A95EAF7CE010E94EC00E12CFA
S1130260F12CED81FE81EE0DFF1DE00FF11F608189
S1130270CE010E94EC0088E0E80EF11C80E4E81650
S1130280F10479F761E08A810E94B10260E08A8119
S11302900E94B10280E001C081E0DF91CF911F9103
S11302A00F91FF90EF900895CF93DF93FC01848129
S11302B08250823060F46381683010F0138207C08A
S11302C0EF01CF010E9419018B818F5F8B83DF9136
S11302D0CF91089508950E9411020E946A010E941C
S11302E07D00C0E0D0E00E9481002097E1F30E94ED
S11302F00000F9CF1F920F920FB60F9211242F9383
S11303003F938F939F93AF93BF9380918A01909172
S11303108B01A0918C01B0918D013091890123E072
S1130320230F2D3720F40196A11DB11D05C026E829
S1130330230F0296A11DB11D2093890180938A0188
S113034090938B01A0938C01B0938D0180918E01C9
S113035090918F01A0919001B09191010196A11DFE
S1130360B11D80938E0190938F01A0939001B0935F
S11303709101BF91AF919F918F913F912F910F90D8
S11303800FBE0F901F9018953FB7F89480918E017F
S113039090918F01A0919001B091910126B5A89BF5
S11303A005C02F3F19F00196A11DB11D3FBFBA2F03
S11303B0A92F982F8827820F911DA11DB11DBC0163
S11303C0CD0142E0660F771F881F991F4A95D1F728
S11303D00895CF92DF92EF92FF92CF93DF936B0158
S11303E07C010E94C401EB01C114D104E104F104B5
S11303F089F00E94E1020E94C4016C1B7D0B683EDF
S1130400734090F381E0C81AD108E108F108C8519B
S1130410DC4FEACFDF91CF91FF90EF90DF90CF9048
S11304200895789484B5826084BD84B5816084BD68
S113043085B5826085BD85B5816085BDEEE6F0E059
S1130440808181608083E1E8F0E0108280818260B5
S11304508083808181608083E0E8F0E08081816036
S11304608083E1EBF0E0808184608083E0EBF0E066
S1130470808181608083EAE7F0E08081846080830A
S113048080818260808380818160808380818068B4
S113049080831092C1000895833081F028F4813064
S11304A099F08230A1F008958730A9F08830B9F02E
S11304B08430D1F4809180008F7D03C080918000CE
S11304C08F7780938000089584B58F7702C084B5B8
S11304D08F7D84BD08958091B0008F7703C0809193
S11304E0B0008F7D8093B0000895CF93DF9390E0A8
S11304F0FC01E458FF4F2491FC01E057FF4F849125
S1130500882361F190E0880F991FFC01E255FF4FA9
S1130510C591D491FC01EC55FF4FA591B4916111A3
S113052009C09FB7F8948881209582238883EC9131
S11305302E230BC0623061F49FB7F8943881822F68
S1130540809583238883EC912E2B2C939FBF06C028
S11305508FB7F894E8812E2B28838FBFDF91CF913A
S113056008951F93CF93DF93282F30E0F901E859C2
S1130570FF4F8491F901E458FF4FD491F901E057FA
S1130580FF4FC491CC23C9F0162F81110E944C0255
S1130590EC2FF0E0EE0FFF1FEC55FF4FA591B49147
S11305A08FB7F894111105C09C91ED2FE095E923C4
S11305B002C0EC91ED2BEC938FBFDF91CF911F9193
S11305C008950895EE0FFF1F0590F491E02D09940E
S11305D010E0CDE5D0E004C0FE010E94E2022196C5
S10D05E0CE35D107C9F7F894FFCF18
S9030000FC
